:100000000C942A000C9434000C9434000C943400AA
:100010000C9434000C9434000C9434000C94340090
:100020000C9434000C9434000C9434000C94340080
:100030000C9434000C9434000C9434000C94340070
:100040000C9434000C9434000C9434000C94340060
:100050000C94340011241FBECFE5D8E0DEBFCDBF25
:100060000E9454020C94CB020C9400003E9A3F98DC
:100070003D98379A359A339830983198329A089546
:1000800097B1907E97B997B1982B97B9369A349BD0
:10009000FECF349A24B135B1C9010895A0E0B0E093
:1000A000BC01CD0128E833E140E050E00E94760237
:1000B0002FEF33E040E050E00E94A902C90108950B
:1000C0004130B1F5813099F0813030F08230D1F09B
:1000D000833009F067C021C02AB381E090E002C0FC
:1000E000880F991F6A95E2F7282B2ABB089527B33A
:1000F00081E090E002C0880F991F6A95E2F7282BF3
:1001000027BB089524B381E090E002C0880F991FB7
:100110006A95E2F7282B24BB089521B381E090E093
:1001200002C0880F991F6A95E2F7282B21BB08951A
:100130004423C1F5813099F0813028F08230D9F024
:10014000833081F524C02AB381E090E002C0880F9B
:10015000991F6A95E2F7809582238ABB089527B399
:1001600081E090E002C0880F991F6A95E2F78095C0
:10017000822387BB089524B381E090E002C0880FFA
:10018000991F6A95E2F78095822384BB089521B375
:1001900081E090E002C0880F991F6A95E2F7809590
:1001A000822381BB08954130B1F5813099F08130CF
:1001B00030F08230D1F0833009F067C021C02BB31A
:1001C00081E090E002C0880F991F6A95E2F7282B22
:1001D0002BBB089528B381E090E002C0880F991FDF
:1001E0006A95E2F7282B28BB089525B381E090E0BB
:1001F00002C0880F991F6A95E2F7282B25BB089546
:1002000022B381E090E002C0880F991F6A95E2F75F
:10021000282B22BB08954423C1F5813099F0813009
:1002200028F08230D9F0833081F524C02BB381E0EF
:1002300090E002C0880F991F6A95E2F780958223AB
:100240008BBB089528B381E090E002C0880F991F0E
:100250006A95E2F78095822388BB089525B381E0F3
:1002600090E002C0880F991F6A95E2F7809582237B
:1002700085BB089522B381E090E002C0880F991FEA
:100280006A95E2F78095822382BB089508950895C8
:10029000813049F0813028F0823039F0833041F4E8
:1002A00006C06BBB089568BB089565BB089562BB2B
:1002B0000895813049F0813028F0823039F0833060
:1002C00041F406C06ABB089567BB089564BB0895F6
:1002D00061BB08950F931F93182F83E060E041E006
:1002E0000E94D30083E061E040E00E94D30082E0FE
:1002F000612F0E94480183E062E041E00E94D30048
:1003000000ED17E0C8010197F1F783E062E040E0FB
:100310000E94D300C8010197F1F71F910F91089532
:10032000CF93DF939C01C0E0D0E017C0CE0153E033
:10033000880F991F5A95E1F7CC0FDD1FC80FD91F01
:10034000C9016AE070E00E949502C80FD91FC90177
:100350006AE070E00E9495029B012115310531F79A
:1003600010C0CE016AE070E00E949502482FCE01D5
:100370006AE070E00E949502EB01842F805D0E948C
:100380006A01209771F7DF91CF910895EF92FF9264
:100390001F93CF93DF93EC0110E068ECE62EF12C75
:1003A0000AC00E946A0180ED97E0F7013197F1F7EA
:1003B0000197D9F71F5FFE01E10FF11D80818823AE
:1003C00081F7DF91CF911F91FF90EF9008950F93E8
:1003D0001F93182F83E060E040E00E94D30083E089
:1003E00061E040E00E94D30082E0612F0E9448015A
:1003F00083E062E041E00E94D30000ED17E0C80115
:100400000197F1F783E062E040E00E94D300C80169
:100410000197F1F71F910F910895882329F4862FF2
:1004200080580E94E7010895813021F4862F80547E
:100430000E94E70108950F931F9382E06FEF0E94DF
:10044000590183E060E041E00E94600083E061E0E8
:1004500041E00E94600083E062E041E00E946000B1
:1004600080E991E028EC30E0F9013197F1F701974C
:10047000D9F788E390E00E94E70100ED17E0C8019A
:100480000197F1F78FE090E00E94E701C801019722
:10049000F1F781E090E00E94E70180EA9FE0019798
:1004A000F1F71F910F9108950F931F93CF93DF934F
:1004B0000E941B020E943600C8ECD0E080E00E943F
:1004C00040000E944E008C0181E00E94E70180E024
:1004D00060E00E940D02C8010E94900188E893E14B
:1004E000FE013197F1F70197D9F7E8CF629FD0016C
:1004F000739FF001829FE00DF11D649FE00DF11DDF
:10050000929FF00D839FF00D749FF00D659FF00D8D
:100510009927729FB00DE11DF91F639FB00DE11D7A
:10052000F91FBD01CF0111240895AA1BBB1B51E186
:1005300007C0AA1FBB1FA617B70710F0A61BB70B53
:10054000881F991F5A95A9F780959095BC01CD01F8
:100550000895A1E21A2EAA1BBB1BFD010DC0AA1F04
:10056000BB1FEE1FFF1FA217B307E407F50720F01C
:10057000A21BB30BE40BF50B661F771F881F991F97
:100580001A9469F760957095809590959B01AC01E0
:0A059000BD01CF010895F894FFCFDC
:00000001FF
